:10000000B701400037210000130101809700000074
:10001000E780C00073001000130101FE232E1100C1
:10002000232C810013040102232604FE6F008008A4
:10003000B7074000938747000327C4FE23A0E700CB
:100040008327C4FE9397170013870700B707800024
:10005000B307F70083C707002324F4FE8327C4FEF9
:100060009397170013870700B7078000938717003F
:10007000B307F70083C707002322F4FE832744FE5B
:1000800013978700832784FEB367F700930540002A
:100090001385070097000000E78000201305000289
:1000A00097000000E78080448327C4FE93871700F1
:1000B0002326F4FE0327C4FE9307F000E3DAE7F6F5
:1000C0001305A00097000000E7804042930700005E
:1000D000138507008320C10103248101130101025C
:1000E000678000004743433A2028785061636B20C3
:1000F000474E5520524953432D5620456D62656445
:1001000064656420474343207838365F36342920BD
:1001100031302E322E300000130101FD2326110252
:100120002324810213040103232EA4FC8327C4FD8E
:100130002326F4FE6F0040028327C4FE83C7070016
:100140001385070097000000E780403A8327C4FE2C
:10015000938717002326F4FE8327C4FE83C7070076
:10016000E39C07FC13000000130000008320C10281
:10017000032481021301010367800000130101FEC3
:10018000232E1100232C8100130401022326A4FE38
:100190000325C4FE97000000E78040F81305A00087
:1001A00097000000E7808034930710001385070054
:1001B0008320C10103248101130101026780000033
:1001C000130101ED232611122324811213040113BC
:1001D000232EA4EC9307C4EE2326F4FE8327C4ED5C
:1001E00063DC07041305D00297000000E7800030AD
:1001F0008327C4EDB307F040138507009700000084
:10020000E78040FC6F0000080327C4ED9307A000BF
:10021000B366F7028327C4FE138717002326E4FE84
:1002200013F7F60F2380E7000327C4ED9307A00020
:10023000B347F702232EF4EC8327C4EDE39607FCC3
:100240009307C4EE0327C4FEE300F7FC6F00C0026F
:100250008327C4FE9387F7FF2326F4FE8327C4FE7B
:1002600083C707009387070393F7F70F13850700EA
:1002700097000000E78080279307C4EE0327C4FEA1
:10028000E318F7FC8320C112032481121301011328
:1002900067800000130101FD23261102232481023F
:1002A00013040103232EA4FC232CB4FC832784FD18
:1002B0009387F7FF939727002326F4FE6F00C00370
:1002C0008327C4FE0327C4FDB357F70093F7F70055
:1002D000370700001307474DB307F70083C7070030
:1002E0001385070097000000E78040208327C4FEA5
:1002F0009387C7FF2326F4FE8327C4FEE3D207FCBF
:1003000013000000130000008320C10203248102B7
:100310001301010367800000130101FE232E110069
:10032000232C8100130401022326A4FE93058000E0
:100330000325C4FE97000000E78000F613000000CC
:100340008320C101032481011301010267800000A1
:10035000130101FB2326110223248102130401034C
:10036000232EA4FC2322B4002324C4002326D4007B
:100370002328E400232AF400232C0401232E140153
:1003800093070402232CF4FC832784FD938747FE04
:100390002326F4FE6F00C0118327C4FD03C70700A6
:1003A000930750026316F70E8327C4FD9387170047
:1003B000232EF4FC8327C4FD03C7070093073007EF
:1003C0006312F7028327C4FE138747002326E4FE47
:1003D00083A707001385070097000000E78000D47B
:1003E0006F00400C8327C4FD03C7070093078007F5
:1003F0006312F7028327C4FE138747002326E4FE17
:1004000083A707001385070097000000E78000F12D
:100410006F0040098327C4FD03C707009307400608
:100420006312F7028327C4FE138747002326E4FEE6
:1004300083A707001385070097000000E78080D896
:100440006F0040068327C4FD03C7070093073006EB
:100450006314F7028327C4FE138747002326E4FEB4
:1004600083A7070093F7F70F138507009700000095
:10047000E780C0076F0000038327C4FD83C7070020
:100480001385070097000000E78040066F00800199
:100490008327C4FD83C7070013850700970000006A
:1004A000E780C0048327C4FD93871700232EF4FC44
:1004B0008327C4FD83C70700E39007EE930700007E
:1004C000138507008320C102032481021301010563
:1004D00067800000303132333435363738394142A5
:1004E000434445460000000023A4A10093020020DD
:1004F00003A3010133735300E31C03FE6780000074
:00000001FF
