:10000000B701400037210000130101809700000074
:10001000E780C06D730010009302100093921201EC
:100020009382F2FFE39E02FE67800000130101FD50
:10003000232611022324810213040103232EA4FC8E
:100040008327C4FD2326F4FE6F0040028327C4FEED
:1000500083C707001385070097000000E780403D35
:100060008327C4FE938717002326F4FE8327C4FE4C
:1000700083C70700E39C07FC130000001300000087
:100080008320C10203248102130101036780000061
:10009000130101FE232E1100232C81001304010201
:1000A0002326A4FE0325C4FE97000000E78040F845
:1000B0001305A00097000000E78080379307100029
:1000C000138507008320C10103248101130101026C
:1000D00067800000130101ED2326111223248112F1
:1000E00013040113232EA4EC9307C4EE2326F4FE7D
:1000F0008327C4ED63DC07041305D00297000000DA
:10010000E78000338327C4EDB307F0401385070071
:1001100097000000E78040FC6F0000080327C4ED53
:100120009307A000B366F7028327C4FE1387170066
:100130002326E4FE13F7F60F2380E7000327C4ED20
:100140009307A000B347F702232EF4EC8327C4EDF6
:10015000E39607FC9307C4EE0327C4FEE300F7FC15
:100160006F00C0028327C4FE9387F7FF2326F4FEA7
:100170008327C4FE83C707009387070393F7F70F0E
:100180001385070097000000E780802A9307C4EEDC
:100190000327C4FEE318F7FC8320C1120324811255
:1001A0001301011367800000130101FD23261102D2
:1001B0002324810213040103232EA4FC232CB4FC6A
:1001C000832784FD9387F7FF939727002326F4FE68
:1001D0006F00C0038327C4FE0327C4FDB357F70095
:1001E00093F7F700370700001307873EB307F700C0
:1001F00083C707001385070097000000E7804023AE
:100200008327C4FE9387C7FF2326F4FE8327C4FEFB
:10021000E3D207FC13000000130000008320C1029A
:10022000032481021301010367800000130101FE12
:10023000232E1100232C8100130401022326A4FE87
:10024000930580000325C4FE97000000E78000F6B8
:10025000130000008320C101032481011301010266
:1002600067800000130101FB232611022324810271
:1002700013040103232EA4FC2322B4002324C4006E
:100280002326D4002328E400232AF400232C04018D
:10029000232E140193070402232CF4FC832784FDEE
:1002A000938747FE2326F4FE6F00C0118327C4FD09
:1002B00003C70700930750026316F70E8327C4FD98
:1002C00093871700232EF4FC8327C4FD03C7070080
:1002D000930730076312F7028327C4FE1387470092
:1002E0002326E4FE83A7070013850700970000007C
:1002F000E78000D46F00400C8327C4FD03C70700CC
:10030000930780076312F7028327C4FE1387470011
:100310002326E4FE83A7070013850700970000004B
:10032000E78000F16F0040098327C4FD03C7070081
:10033000930740066312F7028327C4FE1387470022
:100340002326E4FE83A7070013850700970000001B
:10035000E78080D86F0040068327C4FD03C70700ED
:10036000930730066314F7028327C4FE1387470000
:100370002326E4FE83A7070093F7F70F13850700F2
:1003800097000000E780C00A6F0000038327C4FDC8
:1003900083C707001385070097000000E780400926
:1003A0006F0080018327C4FD83C707001385070002
:1003B00097000000E780C0078327C4FD93871700DC
:1003C000232EF4FC8327C4FD83C70700E39007EEC8
:1003D00093070000138507008320C10203248102D4
:1003E0001301010567800000303132333435363770
:1003F0003839414243444546004743433A20287830
:100400005061636B20474E5520524953432D56206F
:10041000456D6265646465642047434320783836DF
:100420005F3634292031302E322E300023A4A10033
:100430009302002003A3010133735300E31C03FE66
:1004400067800000130101FF232481002322910013
:100450002320210123261100130990001304050015
:10046000938405006350A908930505003705000033
:100470001305C56A97000000E78000DF930764FF5B
:100480006362F908370500001305C56B970000008B
:10049000E78080DD37050000938504001305056CB7
:1004A00097000000E78040DCB707000003A7477112
:1004B0008320C10003290100131557003305E5000F
:1004C000334485001315540033048500B34594006C
:1004D0000324810023AAB770832441001301010182
:1004E000678000001305000297000000E78040F4D9
:1004F00037050000930504001305C56A9700000046
:10050000E78080D69307A000B367F40213072000AA
:10051000638EE702130730006380E70213071000C1
:10052000E392E7F6370500001305056B970000001E
:10053000E78080D36FF01FF6370500001305856B49
:1005400097000000E78040D26FF0DFF4370500002D
:100550001305456B97000000E78000D16FF09FF313
:10056000130101FDB717000023248102232E31015E
:10057000938757503704000093052000130510009F
:10058000B70900002322910223202103232C4101DB
:10059000232A5101232861012326710123261102F8
:1005A000232AF4709304300097000000E780C0E92C
:1005B00013090000930B200093898971130A10001E
:1005C000930A2008130B00046F000001130919009F
:1005D0009384240063086907935759409397270031
:1005E000B387F90003A70700B3172A01B3F7E700A1
:1005F000E39E07FC13850B00938504009700000021
:10060000E78080E4938B1B00939614009387D6FFBA
:1006100013D767401317270013F616003387E90036
:10062000630E060093D71740B317FA00E3C0DAFA57
:1006300003260700B3E7C7002320F700B386960020
:100640006FF0DFFC83254471370500001305C56C8E
:1006500097000000E78040C103274471B7A77217D5
:100660009387F748630EF702370500001305056E00
:10067000032481028320C102832441020329010251
:100680008329C101032A8101832A4101032B01012E
:10069000832BC10013010103170300006700839F30
:1006A000370500001305C56D6FF09FFC2564000041
:1006B000737400006E6400007264000074680000CF
:1006C000207072696D653A2025640A00636865636D
:1006D0006B73756D3A0A202020257800204F4B005F
:1006E000204552524F520000130101FF23261100F2
:1006F0002324810097000000E780C0E61304A000D7
:100700001304F4FF97000000E7804091E31A04FE11
:100710006FF05FFE0000000000000000000000001D
:00000001FF
